:020000040000FA
:2000000000000220CD030000852E0000872E0000892E00008B2E00008D2E0000000000005B
:200020000000000000000000000000008F2E0000912E000000000000932E0000952E0000C0
:2000400025040000290400002D0400003104000035040000390400003D04000041040000E8
:2000600045040000490400004D0400005104000055040000590400005D04000061040000C8
:20008000972E0000690400006D0400007104000075040000790400007D040000810400004C
:2000A00085040000890400008D0400009104000095040000990400009D040000A104000088
:2000C000A5040000A9040000AD040000B1040000B5040000B904000000000000BD0400002D
:2002FC002143658710B5054C237833B9044B13B10448AFF300800123237010BD4408002084
:20031C0000000000A043000008B5034B1BB103490348AFF3008008BD000000004808002019
:20033C00A0430000A3F5803A704700BF174B002B08BF134B9D46FFF7F5FF00218B460F4630
:20035C001348144A121A03F0F7FC0E4B002B00D098470D4B002B00D098470020002104000C
:20037C000D000D48002802D00C4803F0C5FD03F0FFF92000290003F0F3F803F0E9F900BF56
:20039C000000080000000000000000000000022044080020F8210020153F0000213F0000BE
:2003BC00036883F3088843681847BFF34F8F00BF064880470649074A074B9A42BEBF51F8AE
:2003DC00040B42F8040BF8E704488047572E0000CC4300000000002044080020490300004B
:2003FC00FFF7FEBF2F4800472F4800472F4800472F4800472F4800472F4800472F480047FC
:20041C002F4800472F4800472F4800472F4800472F4800472F4800472F4800472F480047D0
:20043C002F4800472F4800472F4800472F4800472F4800472F4800472F4800472F480047B0
:20045C002F4800472F4800472F4800472F4800472F4800472F4800472F4800472F48004790
:20047C002F4800472F4800472F4800472F4800472F4800472F4800472F4800472F48004770
:20049C002F4800472F4800472F4800472F4800472F4800472F4800472F4800472F48004750
:2004BC002F480047852E0000872E0000892E00008B2E00008D2E00008F2E0000912E000053
:2004DC00932E0000952E0000FD030000FD030000FD030000FD030000FD030000FD0300007C
:2004FC00FD030000FD030000FD030000FD030000FD030000FD030000FD030000FD030000E0
:20051C00391E0000611E0000891E0000B11E0000D91E0000011F0000291F0000511F0000A4
:20053C00FD030000FD030000FD030000FD030000FD030000FD030000FD030000FD0300009F
:20055C00FD030000FD030000FD030000FD030000FD030000FD030000FD030000FD0300007F
:20057C00FD03000041096FF01F0330B503FB0103012201F5D4754FF0804402FA03F300282E
:20059C0044F8253006DB044B00F01F0002FA00F043F8210030BD00BF00E100E0002810B5CD
:2005BC004FEA50130CDB00F01F02012191400B4C03F1200244F82210BFF34F8FBFF36F8F7D
:2005DC006FF01F0202FB0300012202FA00F003F5D8734FF0804242F8230010BD00E100E041
:2005FC0038B5431E4D420B442B4098420C4601D9002038BD6FF00402521A9A42F8D3081D90
:20061C00184403F0D9F80028F2D0033404442C40201A43F2390324F8020C24F8043C204632
:20063C00E7E730F8041C43F23902914204D130F8023CC01A03F0C8B8704708B510B902F08E
:20065C0031FCFCE7A0FB01014FF0FF338342084B8B4102D202F026FCFCE7064A002302F04C
:20067C00FDFD0046A0F101000028FBD108BD00BF3F420F0000093D004FF08042D2F800343F
:20069C0023F4704343EA0030C2F800047047022810D80A4B53F820301846704783EA5302C9
:2006BC00920302F4804242EA53030130B0F5004FF4D9F1E74FF48043F8E700BF8C42000013
:2006DC00B0F1004F28D038B3C0F30B038BB1DAB21C2A18BF92004FEA132308BF0F4A03F170
:0406FC00FF3318BFF1
:2007000002F18042DBB214BFC2F880321362000B10D0C0F30B0068B1C3B2000A01381C2B22
:20072000C0B202D1044B186270479B0003F18043C3F88002704700BF00000440B0F1004FBB
:2007400010B5034600F0706127D080B1C4B21C2C02D1134B1A6A04E0A30003F18043D3F826
:200760008022D2B2531C1B0203F470632343000B12D0C0B21C2815BF8200094A02F1804296
:20078000126A18BFD2F88022D2B20132120202F47062104343EA00330B43184610BD00BF1C
:2007A00000000440800000F180401AB14FF00053C0F8003321B94FF08043C0F800337047FE
:2007C0000139C0F8001370471949884205D0194B984202D0184B984228D14FF080421023E2
:2007E000C2F830368842D2F800351AD903F08071114B984211484FF080730BD1D3F830346D
:2008000003400B4343F0404343F48043C2F8003500207047D3F8443403400B4343F0404347
:20082000F4E7D2F8003523F08043EFE701207047001BB700006CDC0200D8B805FF3FFF006C
:200840004FF080430348D3F8103613F0100F18BF00207047001BB700002070474FF08043BF
:20086000D3F81026D20212D4D3F80805D3F80825084BC2F34412134400F01F001B7B4CF255
:200880005032013053434000B3FBF0F070470020704700BF8C4200004FF08043D3F8102623
:2008A000D2060CD4D3F80005184009D0D3F80035044813F4804F044B08BF18467047002012
:2008C000704700BF00D8B805006CDC02014B1868704700BF600800204FF40040704708B502
:2008E0004FF08043D3F8840202281DD0032821D0E8B9D3F880221AB9BDE80840FFF7A0BF4F
:20090000D3F88022012A11D0D3F88022022A03D1BDE80840FFF7A2BFD3F88032032B05D12C
:20092000BDE80840FFF7B8BF044B186808BD02F0C7FAFCE74FF40040F8E700BF600800208A
:2009400000207047054B1B6A13F0030301D1FFF7C6BF012B024818BF00207047000004402D
:20096000001BB70010B54FF08044D4F8A432072B14D8DFE803F0040D101313131316FFF7EA
:20098000AEFFD4F89433DBB20133B0FBF3F010BD054B1868F5E7FFF77FFFF2E702F090FA86
:2009A000FCE70020EDE700BF6008002008B54FF08043D3F8E832032B0FD8DFE803F0021193
:2009C000060ABDE80840FFF78ABFBDE80840FFF737BFBDE80840FFF75FBF02F071FAFCE7C1
:2009E000014B186808BD00BF6008002010B54FF08044D4F8EC32052B19D8DFE803F0030C83
:200A00000F1B1215FFF71CFFD4F8A833DBB20133B0FBF3F010BDFFF73FFFF5E7064B1868D0
:200A2000F2E7FFF75CFFEFE7FFF718FFECE702F047FAFCE70020E7E76008002010B504463B
:200A4000FFF7B4FF0D4B9C4215D8A04213D3B0FBF4F3012B0FD8011B002308022246090E95
:200A600002F00AFC4FF08043000240F0FF00C3F8A003012010BD0020FCE700BF006CDC02F3
:200A800010B54FF08044D4F8A033DBB2FF2B0ED1FFF78CFFD4F8A0230146C2F3072202F52D
:200AA000807200230002090E02F0E6FB10BD0020FCE708B5AC304FF0804353F82030042B00
:200AC00013D8DFE803F003070B150E00BDE80840FFF7B6BEBDE80840FFF7DEBE054B186893
:200AE00008BDBDE80840FFF7CBBF02F0E9F9FCE70020F5E76008002008B54FF08043D3F8FF
:200B0000A82252B9FFF7C8FE4FF08043D3F89833DBB20133B0FBF3F008BDD3F8A832012BC7
:200B20000ABF024B00201868EEE700BF6008002008B5092830D8DFE800F0050914182F1CB1
:200B40001F23272BBDE80840FFF7C9BEFFF7C7FE4FF08043D3F88033DBB20133B0FBF3F00D
:200B600008BDBDE80840FFF797BEBDE80840FFF767BE0A4B1868F3E7BDE80840FFF7BCBF63
:200B8000BDE80840FFF76ABEBDE80840FFF778BFBDE80840FFF7D6BE0020E1E76008002049
:200BA0000F4B984201D8002074E50E4B984201D80120F9E70C4B984201D80220F4E70B4B45
:200BC000984201D80320EFE7094B984201D80420EAE7084B984294BF05200620E4E700BF18
:200BE000001BB70000366E01006CDC0200A24A0400BD010500E1F5054FF08043D3F8903217
:200C000003F00703022B06D0032B06D0002B044818BF00207047FFF721BE4FF4004070479C
:200C2000001BB700F8B50546FFF7E6FF2A6812F4004175D112F4002477D16F6840F2023340
:200C4000C7F309079F426CD040F2FF339F4217D040F202239F4266D04FF480748023DE0853
:200C600086EA93065E4086EA1316F601F6B246EA53039F4204D0013C022CF0D14FF0FF34BC
:200C8000012C38BF0124B0FBF4F32C69E60052D5E868334CC0F31000A04248D0314CA042EC
:200CA00014D03149884244D04FF400414FF4804484EA5406B60306F4804646EA5404A042C2
:200CC00004D001390229F3D14FF0FF31D00358BF4900012938BF0121A1FB030112F48012FA
:200CE0003BD1AB6803F07F03622B32D07F2B11D0422B30D02022102484EA94052D0105F039
:200D0000100545EA5404A34204D0013A022AF3D14FF0FF32520008BF0222002302F0ACFAEB
:200D2000F8BD0124ACE70224AAE70124ABE70121CCE70221CAE7C4F3C726C4F30A04A4FB27
:200D40000341E40A44EA41542046C90AE6FB0301C4E70122DEE70222DCE70122DDE700BF60
:200D600003800100FFFF010003000100014B1860704700BF6008002010B50E4C88B008B912
:200D80002368A3B94FF0804301A8D3F880250192D3F888250292D3F88C250392D3F8902521
:200DA0000492D3F894350593FFF73CFF2060206808B010BD600800202DE9F04F8468E30700
:200DC00085B082460F461FD54068BB69DAF8001083F00803C3F3C0030293914B994200F2EA
:200DE0001981904B994240F2178114F004040ED18D4B984240F20C818C4BB0FBF3F88C4B39
:200E000098420AD904207CE0FFF7F6FEDDE7B0F57A6FC0F0FD804FF0010801254A000195DE
:200E2000844D13464FF0000BA9426DD9029BB0F57A6FC3F1020912D9884210D87CB109FB55
:200E400000F31D460A46002D69D144F62065AA4205D9B3FBF2F35A1EFE2A98BF9846B8F1EB
:200E6000010F8CBF00230123B0FBF8F50393B1FBF5F6B6FBF9F6002C79D006FB09F94FEABA
:200E8000490909FB0555B5EB410F38BF01363B2E4CD873085D1C06F03C03191D3046FFF72C
:200EA00004FCC0F3100040F480204FF08053F8603B6100200122B8F1020F00F287805E4BF6
:200EC00003EB4808B8F82C607E60BBF1020F7FD8594B9B449BF83230BB60019B029E1B05B7
:200EE00043EA0643039E43EAC64343EA011343EA852343EA404343EA82433B60002C75D0E1
:200F0000002005B0BDE8F08F0BF1010BBBF1210F00F08480002619460196134484E7B2FB75
:200F2000F5F605FB16262A4635468CE7B6F5804F11D8B6F5005F11D8B6F5006F11D8B6F528
:200F4000FA7F11D806F109014FF480631F25B3FBF1F39900A2E71F2501219FE71F250221BD
:200F60009CE71F25042199E71F25082196E7A9FB05592A460846FC604B46214602F07CF9A0
:200F800011464FEAC32C2A46C8024B464CEA515102F072F9F602C0F30A0006F4FF260643B5
:200FA0003E61214625462246012084E7F30883EA9603734083EA1613DB01DBB243EA560690
:200FC00008F10108B8F5807FF0D97DE78026F9E7102383EA930636010BF1010B06F010062C
:200FE000BBF1210F46EA5303F3D175E7DAE9033213433A691343DAF8142013439AF8182002
:201000003B61002A3FF47CAF43F000533B6177E7032076E7022074E7012072E7052070E739
:2010200080D1F008A2E111007F841E00C0C62D00BF86F42DBF6878048C420000F8B54FF03C
:2010400080444FF48007C4F8207603688161C4F880354368C4F8883543F48063C4F888353B
:201060008368C4F88C3543F08003C4F88C35C368C4F8903543F40033C4F890350369C4F816
:2010800094358E0743F400230546C4F8943518D0164BD4F89065C4F8903503F5003326F4F8
:2010A0000036C4F830761249C4F890354820FFF7D2FAC4F8906546F40036C4F89065C4F804
:2010C0003076AB69980705D54FF08042D2F88435D907FBD52846FFF7A5FD064B1860AB69C6
:2010E0005B0701D502F0BAFA0020F8BDD25D040080D1F00860080020F8B54FF080444FF446
:201100008007C4F820760368C4F880354368C4F8883543F48063C4F888358368C4F88C35FB
:2011200043F08003C4F88C35C368C4F8903543F40033C4F890350369C4F8943543F400239A
:20114000C4F8943583699907054618D0134BD4F89065C4F8903503F5003326F40036C4F874
:2011600030760F49C4F890354820FFF774FAC4F8906546F40036C4F89065C4F83076AB69DC
:201180009A0705D54FF08042D2F88435DB07FBD5044B6A691A600020F8BD00BFD25D04003B
:2011A00080D1F008600800202F4A70B500FB01F3012493422CD93B282FD800F03C010D1D11
:2011C00041080131012C49D96408013C1F2C48D8264B1C44002694F83540FFF766FA890258
:2011E00041EA05114FF080433143C0F3100041F4A02144F0800440F2027240F4C020C3F852
:201200008015C3F88C45C3F88825C3F8900570BD4000640000FB01F3CBE7B0F5804F11D826
:20122000B0F5005F11D8B0F5006F11D8B0F5FA7F11D800F109054FF48061B1FBF5F18D007B
:201240001F21BFE71F210125BCE71F210225B9E71F210425B6E71F210825B3E74FF48016B2
:20126000BBE700260824B8E7BF6878048C42000008B54FF080434FF000720228C3F84422AF
:2012800027D1154A91421DD0144A91421FD10121C3F898134FF080424FF48570D2F8003556
:2012A00023F0FA4323F4004343F08243C2F80035FFF714FA4FF080434FF00072C3F82422E5
:2012C000084608BD0022C3F898230121E2E70021E0E70021EEE700BF006CDC0200D8B805FC
:2012E000012808B502D901F0EBFDFCE70A4B33F810100A0AB1F5007FC8B228BF074A4FF0A7
:2013000001033CBF88324FF0804103FA00F334BF41F82230536108BDE242000000000440C5
:201320000846DDE7F8B51E460446084617460D46FFF7D6FF3378012202FA07F7A8003BB913
:20134000044404F50054226822EA07022260F8BD73784BB905F50A6544F82570044404F5B8
:20136000005422683A43F1E705F50865F4E700BF08B510B901F0A4FDFCE708BD084B10B561
:20138000002453F8042B904202D00134082CF8D1072C8CBF00200120FFF7EAFF204610BD08
:2013A000E842000010B50446003818BF0120FFF7DFFF228C638C92B29BB29A423DBFE069A1
:2013C0008018C01AD01A10BD10B50446003818BF0120FFF7CDFF2046FFF7E4FFE369013B1C
:2013E0001B1A5842584110BD2DE9F0470C46054610B1081E18BF0120FFF7BAFF23693BBBBE
:20140000A669003E18BF01266768D5F8043E003F18BF01279A0716D5D5F8043ED4F824805A
:2014200043F00203C5F8043ED5F8003E43F40033C5F8003EB8F1000F05D0A36A41F24D6289
:2014400021462846C0474FF004084FF008094CE00126D9E7002E33D0D5F8043E5B0601D48C
:2014600001262CE06B6823F004036B602369002B73D0D5F8302EE3681A702369013B23613B
:20148000E3680133E3602369002B64D1A669003E18BF0126236993B9A36913B90A23C5F8B9
:2014A000143ED4F824A0022384F82D30BAF1000F05D0A36A41F2476221462846D047A7B190
:2014C000D5F8043E9F0679D523681B78C5F8203E6368013B63602368013323606768002FC7
:2014E0006CD1C5F8148EC5F80C901EB1D5F8043E5806B1D41FB1D5F8043E9906AAD4EB68E7
:201500001A070FD56B6A1B070CD50023666A84F82C3008232B612EB1A36A41F2466221463E
:201520002846B047A369A3B92369D5F8082E002B46D194F82F30C2F303429A4209D0D5F8A6
:20154000082E1B0403F4702322F470221343C5F8083EBDE8F08701269CE7A369002B3FF47B
:201560007FAF2046FFF730FF38B1666A2EB1A36A41F24C6221462846B0472046FFF724FFE1
:2015800050B1638CE2699BB2013393421BBF638C013300239BB26384D5F8301E238CA26991
:2015A0009BB2D154238CE2699BB2013393421BBF238C013300239BB2238451E7012794E7BA
:2015C000C2F3034201329A42C3D9D5F8082E013B22F4702242EA0343B9E7F8B5054600383D
:2015E0000C4618BF012016461F46FFF7C1FE201E18BF0120FFF7BCFE301E18BF0120FFF709
:20160000B7FE0023238463840A23C4E90667C5F8103EF8BD38B5054600380C4618BF0120A3
:20162000FFF7A6FE201E18BF0120FFF7A1FE94F82D30022B04BF0A23C5F8143E0023238466
:20164000C4E90633638438BD10B50446003818BF0120FFF78DFEA3681B07FCD50F23C4F81C
:20166000143ED4F8003E23F44053C4F8003E236823F00103236010BD10B50446003818BF5A
:201680000120FFF775FE10220021201D02F062FB4FF4E13323600123A37110BD2DE9F843B1
:2016A0000C461546064618B1C9B1101E18BF0120FFF75EFE002E51D0002C4FD0002D4DD092
:2016C00033681B050DD5336813F480431EBFB5FBF4F505F1FF3535620020BDE8F883084643
:2016E000E6E74FF00A084FF0FF300F2708FB05F94FEA041C86463946B9FBFCF2053AB2F5FB
:20170000202F01F101030ED2B2FBF8F202FB0333B5FBF3F39C4234BF1B1BE31A73453EBF8B
:2017200010460F469E4601390729ACEB040CE3D1421C07FB0222B5FBF2F5AC4234BF2D1B11
:20174000651B6421B4FBF1F404EB4404AC4207D3B0F5803F04D2B7623062BDE70420BCE7A1
:2017600041F25160B9E7F8B50D461746044628B1002900F08A80101E18BF0120FFF7F8FD31
:20178000002C00F09080002D00F08D80002F00F08A800121204600F0F7FA0646002872D1AA
:2017A0006B7AD3B1D4F8003E43F00113C4F8003ED4F8083E23F47063C4F8083E6B7BD4F8C5
:2017C000082E1B0203F470631343C4F8083ED4F8083E43F00103C4F8083E2B7AD3B1D4F854
:2017E000003E43F00213C4F8003ED4F8083E23F47023C4F8083EAB7BD4F8082E1B0403F46D
:2018000070231343C4F8083ED4F8083E43F00203C4F8083EEA7AE97BE879D30143EAC03374
:20182000880200F400600343287B43EA40232879000100F0300003436879800100F04000B7
:201840000343A879800000F00C00890301F4804103430B43297C090301F480510B4343F0D7
:2018600001032968236092B14FF41653B3FBF1F35943B1F5165F18D12362AB7A7BB163688E
:2018800043F4807363603046F8BD084676E73A462046FFF703FF0028EFD00646F3E76368CF
:2018A00023F48073EEE70426EDE741F25166EAE770B5066826F0010604460D4606609AB192
:2018C000036843F0800303604FF41653B3FBF1F35D43B5F5165F11D1013B0362236843F046
:2018E00001032360002008E0026822F0800202601A46FFF7D3FE0028F0D070BD41F25160D9
:20190000FBE738B5044600380D4618BF0120FFF72FFD23682DB123F03C0343F0080323608D
:2019200038BD23F00C032360236843F00403F6E738B50C460546003818BF012044F4807485
:20194000FFF716FDC5F8204E38BD70B50D461646044610B1081E18BF0120FFF709FDBCB1F8
:20196000B5B1D4F8003ED80712D52E44B5420D4B05D1A26812070DD4013BFAD105E0D4F8DE
:20198000042E910608D4013BF9D141F2526070BD0420FCE70020FAE715F8013BC4F8203E1F
:2019A000E4E700BFA0860100F8B50D461646044610B1081E18BF0120FFF7DAFC74B36DB3DE
:2019C000D4F8003E99072BD52E4441F2506141F24F67B54201D1002008E01D4BD4F8042EE7
:2019E000520622D4013BF9D141F25260F8BDA368A26813F4804F42EA030214BF084600209C
:201A000013F4005FA26018BF38461A040AD40028ECD1D4F8303E05F8013BDAE70420E5E704
:201A20000120E3E741F24E60E0E7D4F8043E9B07DDD5D4F8003E43F40033C4F8003ED4F877
:201A4000043E43F00203C4F8043E41F24D60CDE7A08601002DE9F8430C46914698460546B0
:201A600010B1081E18BF0120FFF782FC9DB394B32846FFF783FC302207460021204602F081
:201A800069F90026022384F82D3084F82C60D5F8083E1249C3F3034384F82F30D5F8083E60
:201AA000C3F3032384F82E302846C4E90998224600F0B2F90A48384490F92030B34208DB32
:201AC0000122590903F01F0302FA03F3054A42F82130304600E00420BDE8F883E91300000A
:201AE000E842000000E100E070B50C461646054618B139B1101E18BF0120FFF739FC1DB903
:201B0000042070BD0846F8E7002CF9D0002EF7D0706818B13068003818BF0120FFF728FCDA
:201B20007268002AECD031680029E9D094F82C30012B11D0D5F8103E03F00F03C5F8143E46
:201B40002160A260626043F00403012284F82C200020C5F8103ED4E741F24460D1E738B5B9
:201B60000546081E18BF01200C46FFF701FC0423C5F8143ED5F8003E43F48033C5F8003E91
:201B80000023636084F82C3038BD70B50646081E154618BF01200C46FFF7EAFB281E18BF5E
:201BA0000120FFF7E5FB94F82C3053B16168D6F8042EA368C2F304229B1A5B1A2B600020BE
:201BC00070BD0620FCE72DE9F0470C4690469946054618B141B1101E18BF0120FFF7C8FB96
:201BE00025B90420BDE8F0870846F7E7002CF8D0B8F1000FF5D0D8F8040020B1D8F80000B5
:201C0000003818BF0120FFF7B3FBD8F80470002FE7D0D8F80020002AE3D02B681B0342BF47
:201C20006B6843F004036B6094F82D30032B5AD0A669D5F8103E002E45D003F00F0AC5F855
:201C400014AE2046FFF7AEFB064608B3B84228BF3E460023BF1B1946B4F822C0A2691FFA43
:201C60008CFC12F80CC0D8F8002002F803C0608CE26980B20130904217BF628C6184013211
:201C800092B203F1010318BF62849E42E4D147B1D8F8003067613344E3600323276184F812
:201CA0002D30C5F810AE3FB9676A2FB1A36A41F2476221462846B847B9F1000F16D0C9F886
:201CC000006000208EE703F00F03C5F8143EE2600322276184F82D2008226761C5F8102E56
:201CE000C5F8103EE8E741F245607BE7484679E738B50C460546081E18BF0120FFF738FB11
:201D0000A36943B90823C5F8143ED5F8003E43F40033C5F8003E00232361022384F82D306C
:201D200038BD081E38B518BF012015460C46FFF71FFB281E18BF0120FFF71AFB94F82D30B4
:201D4000022B1FBF226963699B1A2B6014BF0020062038BD08B510B901F0B2F8FCE708BD0A
:201D6000084B10B5002453F8042B824202D00134082CF8D1072C8CBF00200120FFF7EAFF47
:201D8000204610BD1043000070B50C460546FFF7E7FF1F4901EB400301EB80011B8C086B01
:201DA000B3F5007FDAB24FEA13264FF0010303FA02F335BF06F18802164A4FF0804653613B
:201DC00038BF46F8223000F021F944B1042C14D8D5F8F83FE21CD34013F0010F14D0D5F888
:201DE000F83F1B0705D5D5F8F83F03F00703A3420CD1C5F8F84F002070BD052C04D1D5F8C9
:201E0000F83F13F0800FE9E70320F5E70120F3E7104300000000044038B50C461546FFF708
:201E20009FFF044B43F8205003EB80031C62BFF34F8F38BD6408002010B5074C206A003830
:201E400018BF0120FFF786FF236A216803489847BFF34F8F10BD00BF64080020006008407F
:201E600010B5074C606A003818BF0120FFF772FF636A616803489847BFF34F8F10BD00BF0D
:201E8000640800200070084010B5074CA06A003818BF0120FFF75EFFA36AA1680348984719
:201EA000BFF34F8F10BD00BF640800200080084010B5074CE06A003818BF0120FFF74AFFE1
:201EC000E36AE16803489847BFF34F8F10BD00BF640800200090084010B5074C206B0038E7
:201EE00018BF0120FFF736FF236B216903489847BFF34F8F10BD00BF6408002000A00840ED
:201F000010B5074C606B003818BF0120FFF722FF636B616903489847BFF34F8F10BD00BFB9
:201F2000640800200060094010B5074CA06B003818BF0120FFF70EFFA36BA16903489847D4
:201F4000BFF34F8F10BD00BF640800200070094010B5074CE06B003818BF0120FFF7FAFE9F
:201F6000E36BE16903489847BFF34F8F10BD00BF640800200080094008B54FF6E07318427F
:201F800002D000F09DFFFCE781B20123B0F5003F4FEA104203FA01F305D3084A53601168F3
:201FA0001942FCD008BD920002F18042C2F82031D2F800111942FBD0F4E700BF0000044004
:201FC00008B54FF6E073184202D000F079FFFCE781B20123B0F5003F4FEA104203FA01F37E
:201FE00006D3094A9360116833EA0101FBD008BD920002F18042C2F84031D2F8001133EA30
:202000000101FAD0F3E700BF0000044010B50446FFF7B2FF2046BDE81040FFF7D1BF00BFC1
:2020200008B572B6014B984762B608BD0502000310B58AB004461022002101A801F08AFEEB
:20204000142200210DEB020001F084FE3623684605A90093FFF7E4FF0598069B236010B119
:2020600000F51F5018300AB010BD10B58AB004461022002101A801F06DFE142200210DEB3D
:20208000020001F067FE3723684605A90093FFF7C7FF069B05982360079B636010B100F507
:2020A0001F5018300AB010BD70B500248CB0054614220E4607A82146CDE90444069401F0E9
:2020C00049FE392307A902A800940293CDF803408DF801508DF80750CDF80CD0FFF7A0FFEA
:2020E000079B13B103F51F53183333600CB070BD10B58AB004461022002101A801F02AFEEB
:20210000142200210DEB020001F024FE3A23684605A90093FFF784FF069B2360079B63600D
:202120000598089BA360099BE36010B100F51F5018300AB010BD30B514228BB005460C468E
:202140000DEB02000021CDE9031101F003FE3223684605A9CDE900350294FFF761FF059883
:2021600010B100F51F5018300BB030BDF0B515468BB0142207460E460DEB020000211C46BB
:2021800001F0E8FD3323684605A9CDE90037CDE902654FF47A73B4FBF3F40494FFF740FF1A
:2021A000059810B100F51F5018300BB0F0BD70B514468AB0142206460D460DEB0200002104
:2021C000049101F0C7FD3423684605A94FF47A72CDE90036B4FBF2F402950394FFF720FF0F
:2021E000059810B100F51F5018300AB070BD70B514468AB0142206460D460DEB0200002145
:20220000049101F0A7FD3B23684605A94FF47A72CDE90036B4FBF2F402950394FFF700FF07
:20222000059810B100F51F5018300AB070BD30B514228BB005460C460DEB02000021CDE9E9
:20224000031101F087FD3523684605A9CDE900350294FFF7E5FE059810B100F51F501830DD
:202260000BB030BD70B514468AB0142206460D460DEB02000021049101F06CFD3823684615
:2022800005A9CDE90036CDE90254FFF7C9FE059810B100F51F5018300AB070BD10B58AB0EB
:2022A00004461022002101A801F054FD142200210DEB020001F04EFD4623684605A90093B1
:2022C000FFF7AEFE0598069B236010B100F51F5018300AB010BD00BF044A1168034609B916
:2022E000034911601068034413607047A4080020F82100204FF400534B600020704700BE5D
:20230000FEE770474FF0FF30704700F032BB1046704700BF10B510B900F0D2FDFCE700EB38
:202320005103A1EB51010144834200D110BD13F8012D0C781C7001F8012BF5E770B50B4EFB
:2023400001444FF0FF33814204D1D01A18BF4FF0FF3070BD10F8014B63402024002B4FEA34
:202360004303B8BF7340013CEDD0F7E7B71DC1047047024B9B6803B118477047A8080020DB
:2023800001460548036810B513B900F099FDFCE7BDE8104010301847A8080020F8B50346EA
:2023A00048B302683AB342682AB3144C024600F11007264610685168254603C50832BA428E
:2023C0002C46F7D19A680AB1DB6813B90C4BC6E902330C4A142386F81431111D02F1080043
:2023E00000F014FB48B9BDE8F840074907484FF4406200F0A9B96FF00400F8BDA808002042
:20240000712300005412002060120020601E0020014BD3F8B0097047A808002038B50B4CD7
:2024200094F8D4340A4683B9B4F8D6345D1840F698018D4209DC01460548184400F082FE6E
:202440000223A4F8D65484F8D83438BDA0190020BA0900202DE9FF419F4DB5F8D634002B34
:2024600051D095F8D814002940F0E9809B4C01234FF4817204F1100085F8D43401F06AFCDE
:2024800094F81431103B032B38D8DFE803F0024666BDB4F81271D4F817810D26324600215E
:2024A000684601F057FC8E484246B91EFFF746FF002840F09F80D4F8B429D4F8AC39D4F81D
:2024C000B01926745343B0200193864A607401238DF8083000916B4602AF1E4603CEBE42F2
:2024E00010605160334602F10802F6D13068106033791371207C0230FFF742FF002385F8A1
:20250000D434A5F8D6347848694600F0D7F9002800F09C8000F0D4FCFCE7B4F81211D4F86B
:20252000172172480739FFF709FF002862D1B02363746D48D4F81B31C5F8DC3400F0F8F9EB
:20254000024668B9D4F8B019D4F8B40900F02EFB30B9012385F8E034CCE795F8E03413B91D
:20256000B2236374C6E7B4F81261D4F817215F48073E3146FFF7E2FE00283BD1B023B4F8F3
:2025800015216374B5F8E234D11A012904D001DDB323E6E79A42ADD05348694600F0AAF9CB
:2025A000074678BB009B9E422CD850483146FFF7B1FE4E4B3846194686421DD84A4832462B
:2025C00000F0CFF8F0B9D5F8E4341E44C5F8E46494F8153194F8162143EA0223A5F8E234B5
:2025E000D5F8DC349E4285D1012385F8E834A5F8E2047FE7B123B4E71A78D24303F8012BE5
:202600000130D9E7B523ACE7B4F81211D4F8172133480239FFF792FE00280CBFB023B123B5
:2026200002206374FFF7ACFE637CB02B7FF466AF636813B900F044FCFCE798475EE70139B7
:20264000012085F8D81400F0BBF95CE7234EB5F8EA34D6F8B04904EB4324009BB3F5007FEE
:202660001CD3FFF786FE22494FF40072A1F12C0000F0CCF8034658B91D494FF40072204684
:2026800000F0E4F920B9B5F8EA340133A5F8EA34F36803B1984704B0BDE8F081002BF7D030
:2026A00095F8E834002BF3D0FFF763FE1049009AA1F12C0000F0AAF803460028E8D1009A25
:2026C0000B49204600F0C2F90028E1D185F8E804A5F8EA04DCE700BFA0190020A80800209C
:2026E000BA090020BA080020601E0020C30900208C1E0020044B1B6810B513B900F0E0FB93
:20270000FCE7BDE8104018478C200020044B5B6810B513B900F0D4FBFCE7BDE8104018471D
:202720008C200020034648B102683AB142682AB100685968034A03C2002070476FF004003C
:20274000704700BF8C20002040B13AB10023C0E90211016102604360184670476FF004009D
:2027600070472DE9F843DFF8A0800E4698F808301546044600283ED000293CD0002A3AD0FA
:2027800023B9012388F80830FFF7B4FFD4E90023D31A33D09D4234D8A768E3681744B7EBC6
:2027A000030962EB0202A94572F100020CD24A463146184600F0C6FCA268E2606268054415
:2027C0004A444E446260ED1BE0682A46314600F0B9FCE36862682B442A44E3606260002420
:2027E00098F8083023B1002388F80830FFF78EFF2046BDE8F8836FF00404F1E76FF07E0439
:20280000EEE76FF08004EBE78C2000202DE9F047DFF8A4900E4699F8083015460446002820
:2028200040D000293ED0002A3CD023B9012389F80830FFF75FFF6368002B36D0AB4237D31B
:20284000A768236807EB03082769B8EB070A63EB0303AA4573F100030DD239463046524687
:2028600000F070FCA36823616368A7EB08073B44564463603D4421692A46304600F062FCE6
:20288000236962682B44521B23616260002499F8083023B1002389F80830FFF737FF204691
:2028A000BDE8F0876FF00404F1E76FF07D04EEE76FF07F04EBE700BF8C20002070B50C4C4C
:2028C0000D46237A064680B179B11BB901232372FFF710FF73682B600025237A1BB10023B8
:2028E0002372FFF713FF284670BD6FF00405F4E78C20002070B50D4D0E462B7A044690B18E
:2029000089B11BB901232B72FFF7F4FED4E900329B1A336000242B7A1BB100232B72FFF77E
:20292000F5FE204670BD6FF00404F4E78C20002038B50D4D04462B7A90B11BB901232B72F7
:20294000FFF7D8FEA3680020C4E90333606004462B7A1BB100232B72FFF7D8FE204638BD3B
:202960006FF00404F4E700BF8C2000200020704770474FF0FF307047034B1A7802B972B614
:202980001A7801321A7070479520002008B5064A137813B900F094FAFCE7013BDBB213704B
:2029A00003B962B608BD00BF9520002005289ABF024B18564FF0FF30704700BF684300001A
:2029C000034B19684FF47A735843FDF744BE00BF00000020014B1968FDF73DBE00000020AC
:2029E000084B1B68834209D8074A12680844134498422CBF6FF06400002070476FF06400CB
:202A0000704700BF982000207043000030B5AAB1A1B198B10B4DD5E900431C44AB680A4DB7
:202A2000E31A1B0A043B03606B60A4EB03230B602B604FF480731360002030BD6FF0040043
:202A4000FBE700BF70430000982000202DE9F84F064614468846002945D0002A43D01146A7
:202A6000FFF7BEFF074690B95FFA86F9C9F5807B1FFA8BF53119A5424FEAD1314FEAD63038
:202A800088BFA5B2FFF757FB20B16FF001073846BDE8F88F26F0FF0A4A465146134800F0DD
:202AA00051FB124B2A46414603EB090000F04AFB0E4B09EB0500ABEB0502FF21184401F0EE
:202AC00049F972B60A4B09491B684FF480725B005046FFF74BFB62B60028D6D1641B2E4428
:202AE000A844C1D1D3E76FF00407D0E7A020002000000020FF2070472DE9F84F0646884630
:202B00001446B2B31146FFF76BFF0746F8B9DFF86890DFF868B018485FFA86FACAF5807596
:202B2000ADB2A54288BFA5B24FF48072FF2101F011F941462A4609EB0A0001F00BF931192D
:202B4000C90BF00BFFF7F7FA20B16FF001073846BDE8F88FDBF800304FF48072494626F000
:202B6000FF00FFF703FB0028EFD1641B2E44D2D1EDE76FF00407EAE7A020002000000020D7
:202B800073B506460D4671B16AB111460192FFF727FF0A46044618B93146284600F0D2FA1F
:202BA000204602B070BD6FF00404F9E7204B1B688B42F7B5044637D8CBB2002B34D198B3D1
:202BC0001C4F0D0AE90908460191FFF7B4FA019918B16FF0010003B0F0BD15F07F063A68AE
:202BE00015D17F2C0AD90846FFF7E1FA0028F0D18026A41B3544E5D12046ECE761190139D8
:202C00002846FFF7F4FA0028E3D12646F1E7C6F18006A64228BF2646691E31442846FFF76A
:202C2000E6FA0028E5D0D4E76FF06400D3E700BF9820002000000020024B0022D3E90010AD
:202C4000FFF7B4BF982000204FF080420849D2F80835D2F80825C2F3441203F01F03885CDF
:202C600001334CF2503250435B00B0FBF3F070477C4300004FF08042F8B5D2F8844204F03C
:202C80000304022C29D0032C00F0D480002C40F0D480D2F8803203F00303012B00F0CD8005
:202CA000022B02D083B9664801E0FFF7CDFF4FF08043D3F880230023D2B21946013200F0EF
:202CC000DBFA604B1860F8BDD2F800355E4813F4804F5E4B18BF1846E9E7D2F8903203F09F
:202CE0000703022B00F08780032B00F08780002B534818BF00204FF08043D3F8802512043C
:202D0000D5D4D3F88025D3F8885517037BD4C5F3090540F202239D4273D040F202339D4204
:202D200071D04FF0FF314FF480768022D30883EA9203534083EA1213DB01DBB243EA52021C
:202D4000954208BF3146013E022EEFD14FF08043D3F88025D3F88C55D6025AD405F07F0592
:202D6000422D52D0622D52D04FF0FF332027102282EA9206360106F0100646EA5202954285
:202D800008BF3B46013F022FF2D15B0008BF02234FF08042B0FBF1F0D2F8901549033CD517
:202DA000D2F88075D2F89015294AC1F31001914216D002F5004291422DD04FF0FF344FF436
:202DC00000464FF4804282EA5205AD0305F4804545EA5202914208BF3446013E022EF2D1AE
:202DE000FA0358BF6400012C38BF0124A4FB0004B0FBF3F05BE7FFF727FF7CE74FF400409D
:202E000079E70221A2E70121A0E70223BDE70123BBE70123BCE70124E2E7D2F88045D2F860
:202E20009425C4F30044C4F10204C2F3C722A4FB0242DBE74FF4004039E7002037E700BF40
:202E4000001BB70000000020006CDC0200D8B80503000100704708B5084BD3F8882042F42D
:202E60007002C3F88820064A9A604FF080431022C3F82022FFF7EEFF08BD00BF00ED00E0CE
:202E8000000000007047FEE7FEE7FEE7FEE7704770477047704708B5074BD3F8042E12F0FD
:202EA000420F05D0D3F8300E044BC0B21B689847BFF34F8F08BD00BF00800840B4210020EF
:202EC000BFF34F8F0549064BCA6802F4E0621343CB60BFF34F8F00BFFDE700BF00ED00E019
:202EE0000400FA05002070477047014B9860704700ED00E0FFF740BDFFF748BD094B4FF0F8
:202F0000E021002283F823200A6922F007020A61D968054A21F4E0610904090C0A43DA6048
:202F2000704700BF00ED00E00007FA057047704708B5FFF79FFE002008BD0020704738B5E1
:202F400005464FF48770FDF7C9FB2548254CFFF75DF825494FF080434FF4005240F2911033
:202F6000C3F8202248620862C3F840222046FEF783FB40F201130122238102200023A380D5
:202F80006373A3732560A271FDF793FD174D024621462846FEF7E7FBFFF708FD0346E8B9EC
:202FA0000A22C5F8102E124AD068C0F30220C21C062A94BF184604384FF0FF338340DB4334
:202FC0000C4A03F001035B0182F810334FF4803313600020BDE83840FFF7E8BC38BD00BF97
:202FE0000D000100A0210020001000400080084000ED00E000E100E008B50A4640B139B154
:2030000001460548FEF7A1FCBDE80840FFF7CEBC6FF0040008BD00BF0080084018B1034B57
:203020005861002070476FF004007047A021002008B50F48FEF708FB0E494FF080434FF45D
:2030400000524FF48030C3F84422C1F88000BFF34F8FBFF36F8FC1F880010749C3F820220A
:203060004FF4C87048620862C3F8402208BD00BF0080084000E100E00010004013B501235B
:203080008DF804300B484FF0804300214FF400524FF4C0748DF80510C3F82022C460C3F87F
:2030A000402200F50B2001AB0322FEF73BF902B010BD00BF00100040014B0122DA70704796
:2030C00000C00840014B0022DA70704700C0084013B54FF080430A4800214FF400524FF45C
:2030E000C074ADF80410C3F82022C460C3F8402200F50B2001AB0322FEF714F902B010BD33
:20310000001000404FF0804307494FF400524FF4D070C3F82022C860C3F840224FF48042AE
:20312000C3F84022704700BF0010004007B501218DF807000DF10700FFF770F903B05DF8D6
:2031400004FB0000844641EA000313F003036DD1403A41D351F8043B40F8043B51F8043B1C
:2031600040F8043B51F8043B40F8043B51F8043B40F8043B51F8043B40F8043B51F8043B53
:2031800040F8043B51F8043B40F8043B51F8043B40F8043B51F8043B40F8043B51F8043B33
:2031A00040F8043B51F8043B40F8043B51F8043B40F8043B51F8043B40F8043B51F8043B13
:2031C00040F8043B51F8043B40F8043B51F8043B40F8043B403ABDD2303211D351F8043BA3
:2031E00040F8043B51F8043B40F8043B51F8043B40F8043B51F8043B40F8043B103AEDD252
:203200000C3205D351F8043B40F8043B043AF9D2043208D0D2071CBF11F8013B00F8013B55
:2032200001D30B8803806046704700BF082A13D38B078DD010F003038AD0C3F10403D21A7A
:20324000DB071CBF11F8013B00F8013B80D331F8023B20F8023B7BE7043AD9D3013A11F89A
:20326000013B00F8013BF9D20B7803704B7843708B7883706046704753B94AB9002908BF55
:2032800000281CBF4FF0FF314FF0FF3000F074B9ADF1080C6DE904CE00F006F8DDF804E0B0
:2032A000DDE9022304B070472DE9F047089D04468E46002B4DD18A42944669D9B2FA82F257
:2032C00052B101FA02F3C2F1200120FA01F10CFA02FC41EA030E94404FEA1C48210CBEFB84
:2032E000F8F61FFA8CF708FB16E341EA034306FB07F199420AD91CEB030306F1FF3080F07D
:203300001F81994240F21C81023E63445B1AA4B2B3FBF8F008FB103344EA034400FB07F767
:20332000A7420AD91CEB040400F1FF3380F00A81A74240F207816444023840EA0640E41BA0
:2033400000261DB1D4400023C5E900433146BDE8F0878B4209D9002D00F0EF800026C5E9AF
:20336000000130463146BDE8F087B3FA83F6002E4AD18B4202D3824200F2F980841A61EB19
:20338000030301209E46002DE0D0C5E9004EDDE702B9FFDEB2FA82F2002A40F09280A1EBD5
:2033A0000C014FEA1C471FFA8CFE0126200CB1FBF7F307FB131140EA01410EFB03F0884280
:2033C00008D91CEB010103F1FF3802D2884200F2CB804346091AA4B2B1FBF7F007FB101145
:2033E00044EA01440EFB00FEA64508D91CEB040400F1FF3102D2A64500F2BB800846A4EB8E
:203400000E0440EA03409CE7C6F12007B34022FA07FC4CEA030C20FA07F401FA06F31C430D
:20342000F9404FEA1C4900FA06F3B1FBF9F8200C1FFA8CFE09FB181140EA014108FB0EF0BC
:20344000884202FA06F20BD91CEB010108F1FF3A80F08880884240F28580A8F102086144CE
:20346000091AA4B2B1FBF9F009FB101144EA014100FB0EFE8E4508D91CEB010100F1FF34C1
:203480006CD28E456AD90238614440EA0840A0FB0294A1EB0E01A142C846A64656D353D092
:2034A0005DB1B3EB080261EB0E0101FA07F722FA06F3F1401F43C5E9007100263146BDE8F9
:2034C000F087C2F12003D8400CFA02FC21FA03F3914001434FEA1C471FFA8CFEB3FBF7F089
:2034E00007FB10360B0C43EA064300FB0EF69E4204FA02F408D91CEB030300F1FF382FD20D
:203500009E422DD9023863449B1B89B2B3FBF7F607FB163341EA034106FB0EF38B4208D9EE
:203520001CEB010106F1FF3816D28B4214D9023E6144C91A46EA004638E72E46284605E787
:203540000646E3E61846F8E64B45A9D2B9EB020864EB0C0E0138A3E74646EAE7204694E7F7
:203560004046D1E7D0467BE7023B614432E7304609E76444023842E7704700BF7FB5FFF789
:20358000B1FC10B1FFF79CFCFCE7FFF7CFFC4FF4E130FFF7D4FC50BB2848FFF73FFD30BBD9
:2035A000274B00936846274B0193FFF7BBF80146E8B92548FDF7B4FEFFF78AFD234B02932E
:2035C000234B0393234B049302A8234B0593FEF7E5FE60B9FFF7ABFC1B4DEB78F3B9FFF737
:2035E00083FCFFF7A5FC28B1FFF76AFCFCE7FFF767FCF1E7FFF71CFDFFF784FDFFF77EFC76
:20360000FEF706FFFFF771FCFEF702FFFCF7D6FEFEF720FF0220FFF7D3F9F9E7FFF78DFC39
:20362000044610B1FFF74CFCFCE701462846FDF777FEFFF723FDEC70EAE700BF2D310000E0
:20364000F52E0000F92E000000C00840F92F0000C12E0000B9300000C53000004FF0804222
:2036600010B5374B374CC2F83036374B0B21A04259609960196109D806211960D960D2F820
:20368000003423F47043C2F8003410BD2F4CA04209D807211960D960D2F8003423F4704391
:2036A00043F48053EFE72A4CA04209D808211960D960D2F8003423F4704343F40053E2E7FB
:2036C000244CA04201D80921F1E7234CA04209D80A211960D960D2F8003423F4704343F4AF
:2036E0004053D0E71D4CA042F3D91D4CA04208D81960D960D2F8003423F4704343F48043CA
:20370000C1E7184988420AD80C2119609960D960D2F8003423F4704343F4A043B3E7124945
:20372000884201D80D21F0E70E2119609960D960D2F8003423F4704343F4C043A3E700BFBC
:2037400004000038001BB7000000024000366E0100512502006CDC020087930300A24A04A5
:2037600000BD010500D8B80500E1F50508B50021044600F069FB044B1868C36B03B198470A
:203780002046FEF7BCFD00BF9C43000070B50D4E0D4D761BB61006D0002455F8043B01348B
:2037A0009847A642F9D1094E094D761B00F0F8FDB61006D0002455F8043B01349847A6420D
:2037C000F9D170BDC0430000C0430000C8430000C0430000024B0146186800F00BB800BF58
:2037E00004000020024B0146186800F0FFBB00BF040000202DE9F04F01F10B06162E83B035
:20380000044624D8102900F2BA8000F0F5FA102618220220B54F3A44A2F1080153688B42E6
:2038200000F0BA805A68D96822F003021A449D68E9608D60516841F001012046516003F1B4
:20384000080500F0DFFA284603B0BDE8F08F36F0070600F19480B14200F2918000F0CCFA69
:20386000B6F5FC7FC0F09A81730A00F08F80042B00F26F81B30903F1390003F1380CC300E6
:203880009A4F3B44A3F108055B689D4206D10CE0002980F22781DB689D4206D05A6822F0AB
:2038A0000302911B0F29F3DD60463D69DFF850C265457CD06A6822F00302931B0F2B00F360
:2038C0007B81002BC7E904CC80F26C81B2F5007F80F01A81D308796801334FEA521E0122F5
:2038E00002FA0EF20A4357F833E0C5F808E007EBC3010839E9607A6047F83350CEF80C507A
:20390000831001219940914257D8114206D120F003004900114200F10400FAD007EBC009C4
:203920004D468646D5F80C80454508D11DE1002B80F22481D8F80C80454500F01681D8F8EF
:20394000042022F00302931B0F2BF0DD2046D8E9025408EB060146F00106C8F80460EC6053
:20396000A56043F00104C7E90411C1E902CC4C6048F8023000F046FA08F1080502E00C2368
:2039800023600025284603B0BDE8F08F4FF4007340204FF03F0C73E7D3689A4208BF023030
:2039A0007FF440AF3D69DFF858C1654582D17A688310012199409142A7D9BD686B6823F044
:2039C00003094E4503D8A9EB06030F2B7ADCDFF834B1474BDBF800201B680132334405EBE2
:2039E000090A00F0338103F580530F3323F47F6828F00F084146204600F00AFA411C024650
:203A000000F0F380824500F2EE803A4B196841441960084600F04E81DBF800100193013162
:203A20001BBFA2EB0A0A5044CBF80020186012F0070B00F01781CBF108010A44CBF58051DC
:203A400090440831A1EB0801C1F30B0A51462046009200F0DDF9421CDDE9002300F04F819F
:203A6000801A00EB0A081968BA6048F001005144BD425060196000F02981B9F10F0F40F28A
:203A800027816868A9F10C0C2CF0070C00F0010040EA0C0068604FF0050E05EB0C00BCF1E3
:203AA0000F0FC0E901EE00F2328150681546124B1A688A4238BF1960104B1A688A4238BFDD
:203AC000196094E0AA1943F0010346F001066E602046BA60536000F095F90835284603B0E5
:203AE000BDE8F08FD9681A44A1E600BF30040020E8210020B8210020E0210020E421002001
:203B00003804002038080020B2F5206F4FEA522363D3142B00F2B78003F15C01C9005B33BF
:203B200007EB010E7958AEF1080E8E4500F091804B6823F00303934202D989688E45F7D122
:203B4000D1F80CE07A68C5E9021ECEF80850CD60D6E6142B59D9542B00F29D80330B03F1C8
:203B60006F0003F16E0CC3008AE60EF1010E1EF0030F05F108057FF4D5AE51E042444546CC
:203B80005368D8F80C1043F00103536055F8083F2046D9608B6000F035F9F3E6F00806F190
:203BA000080237E62A442046536843F001035360083500F027F9E5E6A919204646F00106E8
:203BC00043F001046E60C7E90411C1E902CC4C60AB5000F017F90835D4E6930903F139013A
:203BE000C90038339CE7BD425FD0BD68686820F003084645A8EB060302D80F2B3FF762AF4E
:203C0000204600F0FFF80025BCE603F15C0003F15B0CC30034E659F808394B4540F09680A0
:203C200010F0030F00F1FF30F5D17B6823EA01037B60490099423FF6C0AE19B9BDE6490038
:203C40000EF1040E1942FAD0704667E603F11008D0E69A104FF001087B6808FA02F21A4341
:203C60007A6070E702EB08014942C1F30B0A51462046009200F0CCF8431CDDE900237FF4CB
:203C8000EFAEDA46EFE6542B25D8130B03F16F01C9006E3344E7B3F5AA7F25D8F30B03F13F
:203CA000780003F1770CC300EAE5294B186840441860B1E6CAF30B0CBCF1000F7FF4ACAE9F
:203CC000BD68C84448F001006860F0E61546EEE60123536094E7B3F5AA7F23D8D30B03F1BD
:203CE0007801C90077331BE740F25452934223D8B30C03F17D0003F17C0CC300C0E5ABF17E
:203D0000080BD844A8EB02084FF0000AABE605F108012046009300F069F9BD68009B686823
:203D20001968C4E640F254518B420BD8930C03F17D01C9007C33F3E64FF47E737F204FF05D
:203D40007E0C9DE54FF47E717E23E9E67B6870E7B8210020830730B548D0541E002A3FD050
:203D6000CAB2034601E0013C3AD303F8012B9D07F9D1032C2DD9CDB245EA05250F2C45EA47
:203D8000054536D9A4F1100222F00F0C03F1200EE6444FEA121C03F1100242E9045542E98E
:203DA000025510327245F8D10CF1010214F00C0F03EB021204F00F0C13D0ACF1040323F020
:203DC00003030433134442F8045B9342FBD10CF003042CB1CAB21C4403F8012B9C42FBD188
:203DE00030BD64461346002CF4D1F9E703461446BFE71A46A446E0E7014800F0FDB900BFFA
:203E0000F0210020014800F0F9B900BFF021002038B5074D0022044608462A60FEF75CFAC6
:203E2000431C00D038BD2B68002BFBD0236038BDF4210020024B13B1024800F06BB8704703
:203E400000000000213F00002DE9F84F2F4B2DED028B834618680F4600F0CEF92C4BD3F8ED
:203E60000080D8F84861AEB108EE10BA4FF001094FF0000A7468651E0CD4013406EB8404AB
:203E800087B1D4F80031BB420CD0013D6B1CA4F10404F5D1BDEC028B1C4B1868BDE8F84FE3
:203EA00000F0ACB973682268013BAB420CBF7560C4F800A0002AE8D0D6F88801D6F804B068
:203EC00009FA05F101420BD1904772685A4513D1D8F84831B342D8D01E46002ECAD1D9E7C3
:203EE000D6F88C0101420CD1D4F8801018EE100A904772685A45EBD0D8F84861002EB9D18F
:203F0000C8E7D4F880009047DFE700BF400800209C430000002301461A46184600F070B9C2
:203F200038B5084B084D5B1B9C1007D0043B1D44013C55F804399847002CF9D1BDE838409A
:203F400000F034BACC430000C8430000F8B5244F0C460646FFF750FFBA685568C4F57E63ED
:203F60000F3325F003052B4423F47F6323F00F03A3F58054B4F5805F07DB00213046FFF7F2
:203F800047FFBB682B44984204D03046FFF73AFF0020F8BD61423046FFF73AFF01300DD0CB
:203FA000104ABB682D1B45F001055D60136830461B1B1360FFF726FF0120F8BD0021304622
:203FC000FFF726FFBA68831A0F2BDEDD43F001035360054B03491B68C01A0860D5E700BF4C
:203FE00030040020B821002038080020002961D0F8B50C460646FFF7FFFE54F8042C7B4F36
:20400000A4F1080522F0010105EB010CB868DCF80430604523F0030300F08B80D207CCF86F
:20402000043032D454F8082CAD1A1144AA6807F1080082426AD00CEB0304D4F804E0EC6898
:20404000D4601EF0010FA26000F0978041F001036B60CCF80010B1F5007F35D27A68CB0850
:2040600048090121013381401143796007EBC30257F83310083AC5E9021247F83350CD606F
:204080003046BDE8F840FFF7BDBE0CEB03025268D00710D4194407F10800DCF808308342BD
:2040A00073D0DCF80C20DA60936041F001036B606950D0E7704741F00103B1F5007F44F8D3
:2040C000043CCCF80010C9D3B1F5206F4FEA512348D28B0903F1390003F13802C300F81872
:2040E000FB580838984259D05A6822F003028A4202D99B689842F7D1D868C5E90230856000
:20410000DD603046BDE8F840FFF77CBE0CEB03025268D20763D40B44DCE90212CA609160D6
:2041200043F001026A603046EB50BDE8F840FFF769BE0B44D10707D454F8082CAD1A134434
:20414000D5E90212CA60916043F001026A60284ABD6012689A4293D8264B30461968FFF7C4
:20416000F5FE8DE7142B0AD9542B1FD80B0B03F16F0003F16E02C300B1E719448DE703F143
:204180005C0003F15B02C300A9E741F00103C7E90455C5E902006B60695071E779689210D2
:2041A000012404FA02F20A437A60A6E7B3F5AA7F06D8CB0B03F1780003F17702C3008EE79E
:2041C00040F25452934206D88B0C03F17D0003F17C02C30083E74FF47E737E227FE741F042
:2041E00001036B60CCF800104AE700BF300400203C080020E8210020704700BF704700BF5F
:204200002DE9F047DFF880A00646DAF8000098460F469146FFF7F0FF1A4B1B68D3F8484111
:2042200024B365681F2D26DC5EB96B1C0235DAF80000636044F82570FFF7E0FF0020BDE8B7
:20424000F08704EB85010123C1F88890D4F88821AB401A43022EC4F88821C1F80881E4D134
:20426000D4F88C211343C4F88C31DEE703F5A674C3F84841D5E7DAF80000FFF7BFFF4FF05A
:20428000FF30DCE79C43000040080020FFFF0100038001000300010000080C0F1214181AE3
:2042A0001C1E2022242628292A2C2D2E30313234353638393A3B3C3DFF03020302027F62B9
:2042C00042624208020808080B08080808080808110808080808080808080808080808080A
:2042E00008000E000F0000000060084000700840008008400090084000A008400060094008
:2043000000700940008009400E0F101112131415006008400070084000800840009008408F
:2043200000A008400060094000700940008009400B010C010D010E010F01100111011201EE
:204340000B0001000C0001000D0001000E0001000F000100100001001100010012000100E1
:204360000E0F10111213141500FEFFFFFBF9000000FD030000030000104C000000080C0F3F
:204380001214181A1C1E2022242628292A2C2D2E30313234353638393A3B3C3D0800002044
:2043A000F8B500BFF8BC08BC9E467047F8B500BFF8BC08BC9E46704788BFFF7F0100000039
:2043C000353E00002503000001030000001BB7000800002000000000F40200205C030020AF
:2043E000C403002000000000000000000000000000000000000000000000000000000000D6
:2044000000000000000000000000000000000000000000000000000000000000000000009C
:2044200000000000000000000000000000000000000000000000000000000000000000007C
:2044400000000000000000000000000000000000000000000000000000000000000000005C
:2044600000000000000000000000000000000000000000000000000000000000010000003B
:20448000000000000E33CDAB34126DE6ECDE05000B000000000000000000000000000000F0
:2044A0000000000000000000000000000000000000000000000000000000000000000000FC
:2044C0000000000000000000000000000000000000000000000000000000000000000000DC
:2044E0000000000000000000000000000000000000000000000000000000000000000000BC
:2045000000000000000000000000000000000000000000000000000000000000000000009B
:2045200000000000000000000000000000000000000000000000000000000000000000007B
:2045400000000000000000000000000000000000000000000000000000000000000000005B
:2045600000000000000000000000000000000000000000000000000000000000000000003B
:2045800000000000000000000000000000000000000000000000000000000000000000001B
:2045A0000000000000000000000000000000000000000000000000000000000000000000FB
:2045C0000000000000000000000000000000000000000000000000000000000000000000DB
:2045E0000000000000000000000000000000000000000000000000000000000000000000BB
:2046000000000000000000000000000000000000000000000000000000000000000000009A
:2046200000000000000000000000000000000000000000000000000000000000000000007A
:2046400000000000000000000000000000000000000000000000000000000000000000005A
:2046600000000000000000000000000000000000000000000000000000000000000000003A
:2046800000000000000000000000000000000000000000000000000000000000000000001A
:2046A0000000000000000000000000000000000000000000000000000000000000000000FA
:2046C0000000000000000000000000000000000000000000000000000000000000000000DA
:2046E0000000000000000000000000000000000000000000000000000000000000000000BA
:20470000000000000000000000000000000000000000000000000000000000000000000099
:20472000000000000000000000000000000000000000000000000000000000000000000079
:20474000000000000000000000000000000000000000000000000000000000000000000059
:20476000000000000000000000000000000000000000000000000000000000000000000039
:20478000000000000000000000000000000000000000000000000000000000000000000019
:2047A0000000000000000000000000000000000000000000000000000000000000000000F9
:2047C0000000000000000000000000000000000000000000000000000000000000000000D9
:2047E0000000000000000000000000000000000000000000000000000000000000000000B9
:20480000000000003004002030040020380400203804002040040020400400204804002004
:20482000480400205004002050040020580400205804002060040020600400206804002098
:20484000680400207004002070040020780400207804002080040020800400208804002078
:204860008804002090040020900400209804002098040020A0040020A0040020A804002058
:20488000A8040020B0040020B0040020B8040020B8040020C0040020C0040020C804002038
:2048A000C8040020D0040020D0040020D8040020D8040020E0040020E0040020E804002018
:2048C000E8040020F0040020F0040020F8040020F8040020000500200005002008050020F5
:2048E0000805002010050020100500201805002018050020200500202005002028050020D0
:204900002805002030050020300500203805002038050020400500204005002048050020AF
:2049200048050020500500205005002058050020580500206005002060050020680500208F
:2049400068050020700500207005002078050020780500208005002080050020880500206F
:204960008805002090050020900500209805002098050020A0050020A0050020A80500204F
:20498000A8050020B0050020B0050020B8050020B8050020C0050020C0050020C80500202F
:2049A000C8050020D0050020D0050020D8050020D8050020E0050020E0050020E80500200F
:2049C000E8050020F0050020F0050020F8050020F8050020000600200006002008060020EC
:2049E0000806002010060020100600201806002018060020200600202006002028060020C7
:204A00002806002030060020300600203806002038060020400600204006002048060020A6
:204A2000480600205006002050060020580600205806002060060020600600206806002086
:204A4000680600207006002070060020780600207806002080060020800600208806002066
:204A60008806002090060020900600209806002098060020A0060020A0060020A806002046
:204A8000A8060020B0060020B0060020B8060020B8060020C0060020C0060020C806002026
:204AA000C8060020D0060020D0060020D8060020D8060020E0060020E0060020E806002006
:204AC000E8060020F0060020F0060020F8060020F8060020000700200007002008070020E3
:204AE0000807002010070020100700201807002018070020200700202007002028070020BE
:204B000028070020300700203007002038070020380700204007002040070020480700209D
:204B200048070020500700205007002058070020580700206007002060070020680700207D
:204B400068070020700700207007002078070020780700208007002080070020880700205D
:204B60008807002090070020900700209807002098070020A0070020A0070020A80700203D
:204B8000A8070020B0070020B0070020B8070020B8070020C0070020C0070020C80700201D
:204BA000C8070020D0070020D0070020D8070020D8070020E0070020E0070020E8070020FD
:204BC000E8070020F0070020F0070020F8070020F8070020000800200008002008080020DA
:204BE0000808002010080020100800201808002018080020200800202008002028080020B5
:104C000028080020FFFFFFFF00000200EC21002029
:2051000000000220BD540000519300006D93000089930000A5930000C193000000000000D0
:20512000000000000000000000000000DD930000F993000000000000159400003194000005
:2051400015550000195500001D5500002155000049940000295500002D550000315500002C
:2051600035550000395500009997000041550000455500004955000091960000515500004C
:2051800055550000595500005D5500006155000065550000695500006D550000715500004F
:2051A00075550000795500007D5500008155000085550000359400008D5500009155000044
:2051C00095550000995500009D550000A1550000A5550000A955000000000000AD55000015
:2054000010B5054C237833B9044B13B10448AFF300800123237010BDC00900200000000001
:2054200018C5020008B5034B1BB103490348AFF3008008BD00000000C409002018C502006C
:20544000A3F5803A704700BF174B002B08BF134B9D46FFF7F5FF00218B460F461348144A05
:20546000121A0CF069FC0E4B002B00D098470D4B002B00D098470020002104000D000D4893
:20548000002802D00C480EF0F5FC0CF047F92000290001F0F1F80CF031F900BF0000080083
:2054A000000000000000000000000220C0090020D4D50020753E0100A1510100064880475C
:2054C0000649074A074B9A42BEBF51F8040B42F8040BF8E7044880470592000044C502004C
:2054E00000000020C009002049540000FFF7FEBF2F4800472F4800472F4800472F4800475B
:205500002F4800472F4800472F4800472F4800472F4800472F4800472F4800472F4800479B
:205520002F4800472F4800472F4800472F4800472F4800472F4800472F4800472F4800477B
:205540002F4800472F4800472F4800472F4800472F4800472F4800472F4800472F4800475B
:205560002F4800472F4800472F4800472F4800472F4800472F4800472F4800472F4800473B
:205580002F4800472F4800472F4800472F4800472F4800472F4800472F4800472F4800471B
:2055A0002F4800472F4800472F4800472F480047519300006D93000089930000A5930000BB
:2055C000C1930000DD930000F99300001594000031940000ED540000ED540000ED5400004A
:2055E000ED540000158900004589000075890000A5890000ED540000ED540000597D00007A
:20560000677D0000ED540000837D00006D85000099850000C5850000F18500001D860000F2
:205620004986000075860000A1860000ED540000ED540000ED540000ED540000ED54000034
:20564000ED540000ED540000ED540000ED540000ED540000D5890000058A0000358A000059
:20566000658A0000757D0000917D0000ED540000844641EA000313F003036DD1403A41D32D
:2056800051F8043B40F8043B51F8043B40F8043B51F8043B40F8043B51F8043B40F8043B0E
:2056A00051F8043B40F8043B51F8043B40F8043B51F8043B40F8043B51F8043B40F8043BEE
:2056C00051F8043B40F8043B51F8043B40F8043B51F8043B40F8043B51F8043B40F8043BCE
:2056E00051F8043B40F8043B51F8043B40F8043B51F8043B40F8043B51F8043B40F8043BAE
:20570000403ABDD2303211D351F8043B40F8043B51F8043B40F8043B51F8043B40F8043B3D
:2057200051F8043B40F8043B103AEDD20C3205D351F8043B40F8043B043AF9D2043208D035
:20574000D2071CBF11F8013B00F8013B01D30B8803806046704700BF082A13D38B078DD00F
:2057600010F003038AD0C3F10403D21ADB071CBF11F8013B00F8013B80D331F8023B20F81B
:20578000023B7BE7043AD9D3013A11F8013B00F8013BF9D20B7803704B7843708B7883709F
:2057A00060467047000000000000000000000000000000000000000000000000000000008C
:2057C00090F800F06DE9024520F007016FF0000C10F0070491F820F040F049804FF0000451
:2057E0006FF00700D1E9002391F840F000F1080082FA4CF2A4FA8CF283FA4CF3A2FA8CF307
:205800004BBBD1E9022382FA4CF200F10800A4FA8CF283FA4CF3A2FA8CF3E3B9D1E9042380
:2058200082FA4CF200F10800A4FA8CF283FA4CF3A2FA8CF37BB9D1E9062301F1200182FA1C
:205840004CF200F10800A4FA8CF283FA4CF3A2FA8CF3002BC6D0002A04BF04301A4612BA10
:20586000B2FA82F2FDE8024500EBD2007047D1E9002304F00305C4F100004FEAC50514F0D3
:20588000040F91F840F00CFA05F562EA05021CBF63EA050362464FF00004A9E7000000003E
:2058A00001F0FF01102A2BDB10F0070F08D010F8013B013A8B422DD010F0070F42B3F6D1AE
:2058C000F0B441EA012141EA014122F007047FF000070023F0E80256083C85EA010586EA5B
:2058E000010685FA47F5A3FA87F586FA47F6A5FA87F68EB9EED1F0BC01F0FF0102F0070256
:2059000032B110F8013B013A83EA010313B1F8D10020704701387047002D06BF35460338B8
:20592000073815F0010F07D1013015F4807F02BF013015F4C03F0130F0BC0138704700BF7C
:2059400081F0004102E000BF83F0004330B54FEA41044FEA430594EA050F08BF90EA020F76
:205960001FBF54EA000C55EA020C7FEA645C7FEA655C00F0E2804FEA5454D4EB5555B8BF4C
:205980006D420CDD2C4480EA020281EA030382EA000083EA010180EA020281EA0303362D03
:2059A00088BF30BD11F0004F4FEA01314FF4801C4CEA113102D0404261EB410113F0004F6D
:2059C0004FEA03334CEA133302D0524263EB430394EA050F00F0A780A4F10104D5F1200EAB
:2059E0000DDB02FA0EFC22FA05F2801841F1000103FA0EF2801843FA05F359410EE0A5F1F3
:205A000020050EF1200E012A03FA0EFC28BF4CF0020C43FA05F3C01851EBE37101F00045FE
:205A200007D54FF0000EDCF1000C7EEB00006EEB0101B1F5801F1BD3B1F5001F0CD3490878
:205A40005FEA30004FEA3C0C04F101044FEA445212F5800F80F09A80BCF1004F08BF5FEA57
:205A6000500C50F1000041EB045141EA050130BD5FEA4C0C404141EB0101013C28BFB1F5D0
:205A8000801FE9D291F0000F04BF01460020B1FA81F308BF2033A3F10B03B3F120020CDA6B
:205AA0000C3208DD02F1140CC2F10C0201FA0CF021FA02F10CE002F11402D8BFC2F1200C7F
:205AC00001FA02F120FA0CFCDCBF41EA0C019040E41AA2BF01EB0451294330BD6FEA0404B9
:205AE0001F3C1CDA0C340EDC04F11404C4F1200220FA04F001FA02F340EA030021FA04F30A
:205B000045EA030130BDC4F10C04C4F1200220FA02F001FA04F340EA0300294630BD21FA27
:205B200004F0294630BD94F0000F83F4801306BF81F480110134013D4EE77FEA645C18BF05
:205B40007FEA655C29D094EA050F08BF90EA020F05D054EA000C04BF1946104630BD91EA3F
:205B6000030F1EBF0021002030BD5FEA545C05D14000494128BF41F0004130BD14F580049C
:205B80003CBF01F5801130BD01F0004545F0FE4141F470014FF0000030BD7FEA645C1ABF18
:205BA000194610467FEA655C1CBF0B46024650EA013406BF52EA033591EA030F41F4002107
:205BC00030BD00BF90F0000F04BF0021704730B54FF4806404F132044FF000054FF0000134
:205BE00050E700BF90F0000F04BF0021704730B54FF4806404F1320410F0004548BF404280
:205C00004FF000013EE700BF42004FEAE2014FEA31014FEA02701FBF12F07F4393F07F4FF9
:205C200081F06051704732F07F4208BF704793F07F4F04BF41F40021704730B54FF460740D
:205C400001F0004521F000411CE700BF50EA010208BF704730B54FF000050AE050EA0102EF
:205C600008BF704730B511F0004502D5404261EB41014FF4806404F132045FEA915C3FF4D9
:205C8000D8AE4FF003025FEADC0C18BF03325FEADC0C18BF033202EBDC02C2F1200300FA25
:205CA00003FC20FA02F001FA03FE40EA0E0021FA02F11444BDE600BF70B54FF0FF0C4CF42E
:205CC000E06C1CEA11541DBF1CEA135594EA0C0F95EA0C0F00F0DEF82C4481EA030621EADB
:205CE0004C5123EA4C5350EA013518BF52EA033541F4801143F4801338D0A0FB02CE4FF05E
:205D00000005E1FB02E506F00042E0FB03E54FF00006E1FB03569CF0000F18BF4EF0010E87
:205D2000A4F1FF04B6F5007F64F5407404D25FEA4E0E6D4146EB060642EAC62141EA55514A
:205D40004FEAC52040EA5E504FEACE2EB4F1FD0C88BFBCF5E06F1ED8BEF1004F08BF5FEA1F
:205D6000500E50F1000041EB045170BD06F0004646EA010140EA020081EA0301B4EB5C04CE
:205D8000C2BFD4EB0C0541EA045170BD41F480114FF0000E013C00F3AB8014F1360FDEBFB0
:205DA000002001F0004170BDC4F10004203C35DA0C341BDC04F11404C4F1200500FA05F330
:205DC00020FA04F001FA05F240EA020001F0004221F0004110EBD37021FA04F642EB06018B
:205DE0005EEA430E08BF20EAD37070BDC4F10C04C4F1200500FA04F320FA05F001FA04F239
:205E000040EA020001F0004110EBD37041F100015EEA430E08BF20EAD37070BDC4F12005FF
:205E200000FA05F24EEA020E20FA04F301FA05F243EA020321FA04F001F0004121FA04F2A2
:205E400020EA020000EBD3705EEA430E08BF20EAD37070BD94F0000F0FD101F00046400044
:205E600041EB010111F4801F08BF013CF7D041EA060195F0000F18BF704703F000465200A6
:205E800043EB030313F4801F08BF013DF7D043EA0603704794EA0C0F0CEA135518BF95EA22
:205EA0000C0F0CD050EA410618BF52EA4306D1D181EA030101F000414FF0000070BD50EA25
:205EC000410606BF1046194652EA430619D094EA0C0F02D150EA013613D195EA0C0F05D162
:205EE00052EA03361CBF104619460AD181EA030101F0004141F0FE4141F470014FF00000CC
:205F000070BD41F0FE4141F4780170BD70B54FF0FF0C4CF4E06C1CEA11541DBF1CEA135559
:205F200094EA0C0F95EA0C0F00F0A7F8A4EB050481EA030E52EA03354FEA013100F08880B4
:205F40004FEA03334FF0805545EA131343EA12634FEA022245EA111545EA10654FEA002612
:205F60000EF000419D4208BF964244F1FD0404F5407402D25B084FEA3202B61A65EB0305B5
:205F80005B084FEA32024FF480104FF4002CB6EB020E75EB030E22BFB61A754640EA0C002B
:205FA0005B084FEA3202B6EB020E75EB030E22BFB61A754640EA5C005B084FEA3202B6EB8C
:205FC000020E75EB030E22BFB61A754640EA9C005B084FEA3202B6EB020E75EB030E22BF3B
:205FE000B61A754640EADC0055EA060E18D04FEA051545EA16754FEA06164FEAC30343EA47
:2060000052734FEAC2025FEA1C1CC0D111F4801F0BD141EA00014FF000004FF0004CB6E799
:2060200011F4801F04BF01430020B4F1FD0C88BFBCF5E06F3FF6AFAEB5EB030C04BFB6EBFB
:20604000020C5FEA500C50F1000041EB045170BD0EF0004E4EEA113114EB5C04C2BFD4EB39
:206060000C0541EA045170BD41F480114FF0000E013C90E645EA060E8DE60CEA135594EA0A
:206080000C0F08BF95EA0C0F3FF43BAF94EA0C0F0AD150EA01347FF434AF95EA0C0F7FF421
:2060A00025AF104619462CE795EA0C0F06D152EA03353FF4FDAE1046194622E750EA410642
:2060C00018BF52EA43067FF4C5AE50EA41047FF40DAF52EA43057FF4EBAE12E74FF0FF3CCD
:2060E00006E000BF4FF0010C02E000BF4FF0010C4DF804CD4FEA410C7FEA6C5C4FEA430C6D
:2061000018BF7FEA6C5C1BD001B050EA410C0CBF52EA430C91EA030F02BF90EA020F002005
:20612000704710F1000F91EA030F58BF994208BF90422CBFD8176FEAE37040F00100704712
:206140004FEA410C7FEA6C5C02D150EA013C07D14FEA430C7FEA6C5CD6D152EA033CD3D0E8
:206160005DF8040B704700BF8446104662468C461946634600E000BF01B5FFF7B7FF00287A
:2061800048BF10F1000F01BD4DF808EDFFF7F4FF0CBF012000205DF808FB00BF4DF808EDAA
:2061A000FFF7EAFF34BF012000205DF808FB00BF4DF808EDFFF7E0FF94BF012000205DF8BD
:2061C00008FB00BF4DF808EDFFF7CEFF94BF012000205DF808FB00BF4DF808EDFFF7C4FF62
:2061E00034BF012000205DF808FB00BF4FEA410C7FEA6C5C02D150EA013C0AD14FEA430CF0
:206200007FEA6C5C02D152EA033C02D14FF0000070474FF0010070474FEA410212F50012AA
:2062200015D211D56FF47873B3EB625212D94FEAC12343F0004343EA505311F0004F23FA36
:2062400002F018BF404270474FF00000704750EA013005D111F0004008BF6FF000407047A7
:206260004FF00000704700BF4A0011D212F5001211D20DD56FF47873B3EB62520ED44FEAA3
:20628000C12343F0004343EA505323FA02F070474FF00000704750EA013002D14FF0FF306C
:2062A00070474FF0000070474FEA4102B2F1E04324BFB3F5001CDCF1FE5C0DD901F0004CFE
:2062C0004FEAC0024CEA5070B2F1004F40EB830008BF20F00100704711F0804F21D113F1D8
:2062E0003872BCBF01F00040704741F480114FEA5252C2F11802C2F1200C10FA0CF320FA1F
:2063000002F018BF40F001004FEAC1234FEAD32303FA0CFC40EA0C0023FA02F34FEA43036B
:20632000CCE77FEA625307D150EA01331EBF4FF0FE4040F44000704701F0004040F0FE4022
:2063400040F40000704700BF53B94AB9002908BF00281CBF4FF0FF314FF0FF3000F074B997
:20636000ADF1080C6DE904CE00F006F8DDF804E0DDE9022304B070472DE9F047089D04460A
:206380008E46002B4DD18A42944669D9B2FA82F252B101FA02F3C2F1200120FA01F10CFAFF
:2063A00002FC41EA030E94404FEA1C48210CBEFBF8F61FFA8CF708FB16E341EA034306FB54
:2063C00007F199420AD91CEB030306F1FF3080F01F81994240F21C81023E63445B1AA4B268
:2063E000B3FBF8F008FB103344EA034400FB07F7A7420AD91CEB040400F1FF3380F00A815A
:20640000A74240F207816444023840EA0640E41B00261DB1D4400023C5E900433146BDE850
:20642000F0878B4209D9002D00F0EF800026C5E9000130463146BDE8F087B3FA83F6002E78
:206440004AD18B4202D3824200F2F980841A61EB030301209E46002DE0D0C5E9004EDDE7BE
:2064600002B9FFDEB2FA82F2002A40F09280A1EB0C014FEA1C471FFA8CFE0126200CB1FB21
:20648000F7F307FB131140EA01410EFB03F0884208D91CEB010103F1FF3802D2884200F215
:2064A000CB804346091AA4B2B1FBF7F007FB101144EA01440EFB00FEA64508D91CEB040484
:2064C00000F1FF3102D2A64500F2BB800846A4EB0E0440EA03409CE7C6F12007B34022FAE3
:2064E00007FC4CEA030C20FA07F401FA06F31C43F9404FEA1C4900FA06F3B1FBF9F8200C59
:206500001FFA8CFE09FB181140EA014108FB0EF0884202FA06F20BD91CEB010108F1FF3A61
:2065200080F08880884240F28580A8F102086144091AA4B2B1FBF9F009FB101144EA0141F7
:2065400000FB0EFE8E4508D91CEB010100F1FF346CD28E456AD90238614440EA0840A0FB13
:206560000294A1EB0E01A142C846A64656D353D05DB1B3EB080261EB0E0101FA07F722FA9B
:2065800006F3F1401F43C5E9007100263146BDE8F087C2F12003D8400CFA02FC21FA03F394
:2065A000914001434FEA1C471FFA8CFEB3FBF7F007FB10360B0C43EA064300FB0EF69E423E
:2065C00004FA02F408D91CEB030300F1FF382FD29E422DD9023863449B1B89B2B3FBF7F65D
:2065E00007FB163341EA034106FB0EF38B4208D91CEB010106F1FF3816D28B4214D9023E18
:206600006144C91A46EA004638E72E46284605E70646E3E61846F8E64B45A9D2B9EB020885
:2066200064EB0C0E0138A3E74646EAE7204694E74046D1E7D0467BE7023B614432E73046C9
:2066400009E76444023842E7704700BFBFF34F8F0549064BCA6802F4E0621343CB60BFF3FD
:206660004F8F00BFFDE700BF00ED00E00400FA0508B5FFF7EBFF00004FF080434FF40052D6
:20668000794E7A4C83B50025C3F820224FF4C07715F0F70118BF012346F825701CBF0021D2
:2066A0008DF804302A4601AB204605F1010508BF8DF804108DF8051001F09FFB172DE7D122
:2066C000694E6A4F4FF4B4680123002446F825802A468DF80430214601AB384601358DF84B
:2066E000054001F08AFB1B2DEED14FF4C475B5675E488DF8044001AB1E2221468DF80540B4
:2067000001F07BFBF56759488DF8044001AB1F2221468DF8054001F070FB534E534D4FF44E
:20672000C07704F12003032C46F823704FF000034BD18DF804308DF80530224601AB012103
:206740002846013401F059FB092CEAD1464E4FF4C07704F12003012546F8237000238DF89C
:206760000530224641488DF8045001AB29462C4401F043FB122CECD13D4B3C481C88C6F8F7
:20678000887001AB02222946ADF8044001F035FB3648C6F88C706B4603222946ADF8004056
:2067A00001F02BFB4FF080434FF40052C3F840224FF4E13002F054FE044670B12D492E481F
:2067C0006F220BF017FBFFF741FF01218DF805308DF8041001AB2246B2E700F03FFD00F0A7
:2067E0005FFD26480BF068FB204600F0A9FF014623480BF0FFFA00F059FD30B907F006FFA2
:206800000146F0B11F480BF0F5FA1F480BF054FBD9E71648294601F0EDFA144B1B4883F8EC
:206820002C400BF049FB00F03BFD03F04DFF08F05DFC0028F7D04FF48310002109F052F9CB
:20684000F1E703F065FD04460028E2D0214699340F48A4B20BF0CEFA032CD6D80D480BF016
:206860002BFB03F00DF9D0E70010004000C00840FC7B0100787D01005C7C0100897C01009D
:20688000AC7C0100CD7C01005E7D0100357D0100F37C0100167D0100034A936891688B42E4
:2068A000FBD101335360704700C00240F0B52E4B4FF08045164601EB401289B000244FF410
:2068C0000057C5F8A442C5F8207243F822400A466B46014625488DF800408DF8014001F0A1
:2068E0008CFA4FF48063C5F84072C5F830364FF40023C5F830364FF40003C5F830364FF029
:206900000063C5F8203205F5202501202B6843F400632B6000F014FF0146284602F020F92A
:2069200018B96FF0010009B0F0BD0A23059304A940F201132846ADF818308DF8104007943D
:2069400002F0CEF80123B340CDE901342846084B039301A902F062F9AB6823F00043AB60BB
:20696000044B20461E60DEE70010004000C0084001000001FC09002000F00700C31C062B99
:206980008CBF043800204FF0FF3303FA00F0C04300F002007047000037B5214B214C1B88DE
:2069A000ADF80430054640F20F1000F053FD1E4801F09CFA1D4B4FF080424FF4005140F206
:2069C0008110C2F82012D862186340F2891058634FF4C0709863C2F840121548002101F016
:2069E00009FA01AB0E220021114801F006FA204602F09AF9072323730123637040F2011365
:206A00006380032000232371A56000F05BFE21460246084802F0E2F902F076FD03B030BD9A
:206A2000007C0100E40900200E0001000010004000C00840009008402DE9FF471E4DDFF8EF
:206A400080801E484FF0804602F084F900244FF4C4794FF4005A4FF48043C6F844320127B9
:206A6000C6F820A201ABC8F83490214628460D228DF804708DF8054001F0BFF9C8F8309076
:206A800002AB214628460C228DF808708DF8094001F0B3F9C8F82C9003AB0B2221462846B2
:206AA0008DF80C708DF80D4001F0A7F9C6F840A2AC7304B0BDE8F08700C008400090084003
:206AC000001000407FB50DF10703002202934FF48013CDE903238DF80700012302A904481A
:206AE000059302F01DFA02F00FFD07B05DF804FB009008401FB578B10023CDE900304FF4CB
:206B00008013CDE902310648694602F009FA02F0FBFC05B05DF804FB6FF00400F9E700BF13
:206B200000900840014B00209873704700C00840024B01229A730020704700BF00C008402C
:206B400070B5384D0FCD8EB06C460FC495E80700102684E80700002132460AA80BF0ECF895
:206B6000314C324805234FF0804509934FF48003CDE90740C5F83066C5F8303600F0ACFC85
:206B80002B4800F067FC204608F0C2FF204600F00FFE4FF4827000F05DFC694607A800F0E1
:206BA00049FE40B1234924484FF49D720BF022F9FFF75EFDFCE7684600F07EFF024640B1D5
:206BC0001C491D484FF49E720BF014F9FFF750FDFCE70121202000F06DFC184800F03AFC29
:206BE000D5F8803223F00303C5F88032144B4FF4E1301C6002F034FC044640B10D490E4856
:206C000040F249120BF0F6F8FFF732FDFCE700F097FD01460B480BF0EDF808F051FA20464F
:206C20000EB070BD047C010000E1F505001BB70000111000C57D01005C7C010000113000BD
:206C400000000020817D010010B5154800F002FC4FF080434FF48002C3F82026114B124887
:206C6000186008F055FF104800F0A2FD4FF4E13002F0F6FB044640B10C490D4840F21912F0
:206C80000BF0B8F8FFF7F4FCFCE700F059FD014608480BF0AFF808F0FDF9204610BD00BF21
:206CA0000011100000000020001BB700AC7D01005C7C0100817D01001FB50023029001A88D
:206CC0000C46ADF8043002F04FFC10B9204602F0D5FC04B010BD002202F0ACBC13B540F263
:206CE000E673104CADF800304FF481738DF804008DF805108DF80620ADF80230236823F090
:206D0000800323606946204601F009FA02F0FCFB28B9236843F080032360FFF7BDFD02B074
:206D200010BD00BF00C0024038B5002851D02A4B4FF080421860D2F80C35284843F00103EF
:206D4000C2F80C350368DB073ED501F0D9F9282203210020FFF7C2FF0546002832D11F4CEF
:206D60001F4A236823F00C0343F004032360236823F00C0343F0080323604FF00051194BDE
:206D8000C2F88011D868C0F30220FFF7F5FD4001C0B282F81D031160002002F0B5FB0546E0
:206DA00080B9236823F00C0343F010032360236843F0100323601D2000F0C2FA236843F029
:206DC00080032360284638BD01F09AF9FFF764FDC5E76FF00405F5E7E009002000C0024074
:206DE00000E100E000ED00E073B50D461446064688B181B17AB10948694601F0A4F99DF82B
:206E0000043033709DF805302B709DF806302370002002B070BD6FF00400FAE700C0024093
:206E2000154B984210B51DD103685B0711D5134B4FF00052C3F88021036823F00C0343F0A7
:206E400004030360FFF728FD0D4BBDE810401B6818470C490C4840F239320AF0CBFFFFF77E
:206E600007FCFCE70749084840F23E320AF0C2FFFFF7FEFBFCE700BF00C0024000E100E0DB
:206E8000E00900209C7D01005C7C010073B5002844D0244B4FF080451860234B23480024AA
:206EA0004FF400564FF4C472C5F8206221469A6101AB06228DF804408DF8054000F09DFF2C
:206EC0001B48C5F8406201F0E5FD1A4A1848214601F0E7FD164801F0EBFD4FF0402001F056
:206EE00037FC0122234621464FF0402001F052FC114BD868C0F30220FFF73EFD0F4B400151
:206F0000C0B283F8040321464FF0402001F082FC042000F015FA204602B070BD6FF004003D
:206F2000FAE700BFDC0900200010004000C00840005000400600000C00ED00E000E100E024
:206F400073B5134B13484FF080454FF400564FF4C472C5F8206200249A6101230622214629
:206F60008DF8043001AB8DF8054000F046FFC5F840624FF0402001F0ADFC042000F0FCF90C
:206F800021464FF0402001F085FC02B070BD00BF0010004000C00840062802D1014B1B68B3
:206FA00018477047DC09002000221D211046FFF77DBC032200210120FFF778BCF0B5054650
:206FC00085B008B3134C144FA36843F00043A360A36843F08063A3600A2639686A46204670
:206FE00001F040FE28B94FF4967002F0A1FA013EF3D1084A936823F0004393603EB1009B88
:207000002B80002005B0F0BD6FF00400FAE76FF00600F7E700000A40FC0900202DE9F34103
:207020001B204FF0804400F061FF1D481D4F01F087FD0723C4F8A4324FF48063C4F8203688
:207040004FF40023C4F820364FF40003C4F8203600254FF400564FF4C0784FF00063C4F8C9
:2070600040322946C4F820626B46C7F874800E488DF800501D228DF8015000F0BEFEC7F8E2
:20708000808009488DF8045001AB2A4601218DF8055000F0B2FEC4F8406202B0BDE8F081E8
:2070A00000000A400010004000C008402DE9F0434FF08044DFF89080214885B04FF40055C5
:2070C00000274FF4C4730126C4F820520222C8F80830394601AB8DF804608DF8057000F0A0
:2070E0008CFE31461648C4F8405200F083FE154BC4F820521B8812484FF4C079C8F88C908F
:207100000322ADF80830314602AB00F076FE31460B48C4F8405200F06DFEC4F820520848F4
:20712000C8F8889003AB022231468DF80C708DF80D6000F062FEC4F8405205B0BDE8F083D0
:2071400000C00840007C010000100040F7B50F4C0021204600F04EFE4FF080460C4B4FF4F1
:2071600000574FF4C472C6F8207201259A65002101AB162220468DF804508DF8051000F0FC
:207180003CFEC6F84072A57503B0F0BD00C008400010004038B5054D0024AC750A2002F0D3
:2071A000BDF90123AB75204638BD00BF00C0084013B54FF080430A4800214FF400524FF49E
:2071C000C474ADF80410C3F82022C460C3F8402200F50B2001AB032200F00FFE02B010BD13
:2071E0000010004013B501238DF804300B484FF0804300214FF400524FF4C0748DF805107E
:20720000C3F82022C460C3F8402200F50B2001AB032200F0F2FD02B010BD00BF00100040D2
:2072200013B501238DF804300B484FF0804300214FF400524FF4C4748DF80510C3F820228C
:207240000461C3F8402200F50B2001AB042200F0D4FD02B010BD00BF0010004010B586B070
